{
  "contractName": "BitcoinPriceOracle",
  "abi": [
    {
      "inputs": [
        {
          "internalType": "address",
          "name": "_oracleAddress",
          "type": "address"
        }
      ],
      "stateMutability": "nonpayable",
      "type": "constructor"
    },
    {
      "inputs": [],
      "name": "getOracleAddress",
      "outputs": [
        {
          "internalType": "address",
          "name": "",
          "type": "address"
        }
      ],
      "stateMutability": "view",
      "type": "function",
      "constant": true
    },
    {
      "inputs": [],
      "name": "getDescription",
      "outputs": [
        {
          "internalType": "string",
          "name": "",
          "type": "string"
        }
      ],
      "stateMutability": "view",
      "type": "function",
      "constant": true
    },
    {
      "inputs": [],
      "name": "getLatestPrice",
      "outputs": [
        {
          "internalType": "int256",
          "name": "",
          "type": "int256"
        }
      ],
      "stateMutability": "view",
      "type": "function",
      "constant": true
    }
  ],
  "bytecode": "0x608060405234801561001057600080fd5b506040516107843803806107848339818101604052810190610032919061011c565b80600160006101000a81548173ffffffffffffffffffffffffffffffffffffffff021916908373ffffffffffffffffffffffffffffffffffffffff160217905550806000806101000a81548173ffffffffffffffffffffffffffffffffffffffff021916908373ffffffffffffffffffffffffffffffffffffffff16021790555050610149565b600080fd5b600073ffffffffffffffffffffffffffffffffffffffff82169050919050565b60006100e9826100be565b9050919050565b6100f9816100de565b811461010457600080fd5b50565b600081519050610116816100f0565b92915050565b600060208284031215610132576101316100b9565b5b600061014084828501610107565b91505092915050565b61062c806101586000396000f3fe608060405234801561001057600080fd5b50600436106100415760003560e01c80631a092541146100465780638e15f47314610064578063b18b78dd14610082575b600080fd5b61004e6100a0565b60405161005b91906102a2565b60405180910390f35b61006c61013b565b60405161007991906102dd565b60405180910390f35b61008a6101e8565b6040516100979190610339565b60405180910390f35b606060008054906101000a900473ffffffffffffffffffffffffffffffffffffffff1673ffffffffffffffffffffffffffffffffffffffff16637284e4166040518163ffffffff1660e01b8152600401600060405180830381865afa15801561010d573d6000803e3d6000fd5b505050506040513d6000823e3d601f19601f82011682018060405250810190610136919061048e565b905090565b60008060008060008060008054906101000a900473ffffffffffffffffffffffffffffffffffffffff1673ffffffffffffffffffffffffffffffffffffffff1663feaf968c6040518163ffffffff1660e01b815260040160a060405180830381865afa1580156101af573d6000803e3d6000fd5b505050506040513d601f19601f820116820180604052508101906101d3919061057b565b94509450945094509450839550505050505090565b6000600160009054906101000a900473ffffffffffffffffffffffffffffffffffffffff16905090565b600081519050919050565b600082825260208201905092915050565b60005b8381101561024c578082015181840152602081019050610231565b60008484015250505050565b6000601f19601f8301169050919050565b600061027482610212565b61027e818561021d565b935061028e81856020860161022e565b61029781610258565b840191505092915050565b600060208201905081810360008301526102bc8184610269565b905092915050565b6000819050919050565b6102d7816102c4565b82525050565b60006020820190506102f260008301846102ce565b92915050565b600073ffffffffffffffffffffffffffffffffffffffff82169050919050565b6000610323826102f8565b9050919050565b61033381610318565b82525050565b600060208201905061034e600083018461032a565b92915050565b6000604051905090565b600080fd5b600080fd5b600080fd5b600080fd5b7f4e487b7100000000000000000000000000000000000000000000000000000000600052604160045260246000fd5b6103aa82610258565b810181811067ffffffffffffffff821117156103c9576103c8610372565b5b80604052505050565b60006103dc610354565b90506103e882826103a1565b919050565b600067ffffffffffffffff82111561040857610407610372565b5b61041182610258565b9050602081019050919050565b600061043161042c846103ed565b6103d2565b90508281526020810184848401111561044d5761044c61036d565b5b61045884828561022e565b509392505050565b600082601f83011261047557610474610368565b5b815161048584826020860161041e565b91505092915050565b6000602082840312156104a4576104a361035e565b5b600082015167ffffffffffffffff8111156104c2576104c1610363565b5b6104ce84828501610460565b91505092915050565b600069ffffffffffffffffffff82169050919050565b6104f6816104d7565b811461050157600080fd5b50565b600081519050610513816104ed565b92915050565b610522816102c4565b811461052d57600080fd5b50565b60008151905061053f81610519565b92915050565b6000819050919050565b61055881610545565b811461056357600080fd5b50565b6000815190506105758161054f565b92915050565b600080600080600060a086880312156105975761059661035e565b5b60006105a588828901610504565b95505060206105b688828901610530565b94505060406105c788828901610566565b93505060606105d888828901610566565b92505060806105e988828901610504565b915050929550929590935056fea26469706673582212206a8303df81ff9a14c95e08fafb6299e1203be4688f673be8d85fcab7af51582464736f6c63430008130033",
  "immutableReferences": {},
  "source": "// SPDX-License-Identifier: MIT\r\npragma solidity ^0.8.0;\r\n\r\nimport \"@chainlink/contracts/src/v0.8/interfaces/AggregatorV3Interface.sol\";\r\n\r\ncontract BitcoinPriceOracle {\r\n    AggregatorV3Interface internal priceFeed;\r\n    address internal oracleAddress;\r\n    constructor(address _oracleAddress) {\r\n        oracleAddress = _oracleAddress;\r\n        priceFeed = AggregatorV3Interface(_oracleAddress);\r\n    }\r\n    function getOracleAddress() public view returns (address) {\r\n        return oracleAddress;\r\n    }\r\n    function getDescription() public view returns (string memory) {\r\n        return priceFeed.description();\r\n    }\r\n    /**\r\n     * Returns the latest price.\r\n     */\r\n    function getLatestPrice() public view returns (int) {\r\n        \r\n        (\r\n        uint80 roundId,\r\n        int price,\r\n        uint startedAt,\r\n        uint updatedAt,\r\n        uint80 answeredInRound\r\n        ) = priceFeed.latestRoundData();\r\n        return price;\r\n    }\r\n}",
  "sourcePath": "D:\\Rider\\web3_examples\\src\\MockingAggregatorV3Interface\\contracts\\BitcoinPriceOracle.sol",
  "compiler": {
    "name": "solc",
    "version": "0.8.19+commit.7dd6d404.Emscripten.clang"
  },
  "schemaVersion": "3.4.13",
  "updatedAt": "2023-04-23T12:39:43.867Z",
  "networkType": "ethereum",
  "devdoc": {
    "kind": "dev",
    "methods": {},
    "version": 1
  },
  "userdoc": {
    "kind": "user",
    "methods": {
      "getLatestPrice()": {
        "notice": "Returns the latest price."
      }
    },
    "version": 1
  }
}