{
  "contractName": "MockAggregatorV3Interface",
  "abi": [
    {
      "inputs": [
        {
          "internalType": "int256",
          "name": "answer",
          "type": "int256"
        },
        {
          "internalType": "uint256",
          "name": "timestamp",
          "type": "uint256"
        },
        {
          "internalType": "uint256",
          "name": "roundId",
          "type": "uint256"
        },
        {
          "internalType": "uint8",
          "name": "decimals",
          "type": "uint8"
        }
      ],
      "stateMutability": "nonpayable",
      "type": "constructor"
    },
    {
      "inputs": [],
      "name": "latestRoundData",
      "outputs": [
        {
          "internalType": "uint80",
          "name": "",
          "type": "uint80"
        },
        {
          "internalType": "int256",
          "name": "",
          "type": "int256"
        },
        {
          "internalType": "uint256",
          "name": "",
          "type": "uint256"
        },
        {
          "internalType": "uint256",
          "name": "",
          "type": "uint256"
        },
        {
          "internalType": "uint80",
          "name": "",
          "type": "uint80"
        }
      ],
      "stateMutability": "view",
      "type": "function",
      "constant": true
    },
    {
      "inputs": [
        {
          "internalType": "uint80",
          "name": "_roundId",
          "type": "uint80"
        }
      ],
      "name": "getRoundData",
      "outputs": [
        {
          "internalType": "uint80",
          "name": "",
          "type": "uint80"
        },
        {
          "internalType": "int256",
          "name": "",
          "type": "int256"
        },
        {
          "internalType": "uint256",
          "name": "",
          "type": "uint256"
        },
        {
          "internalType": "uint256",
          "name": "",
          "type": "uint256"
        },
        {
          "internalType": "uint80",
          "name": "",
          "type": "uint80"
        }
      ],
      "stateMutability": "view",
      "type": "function",
      "constant": true
    },
    {
      "inputs": [],
      "name": "description",
      "outputs": [
        {
          "internalType": "string",
          "name": "",
          "type": "string"
        }
      ],
      "stateMutability": "view",
      "type": "function",
      "constant": true
    },
    {
      "inputs": [],
      "name": "version",
      "outputs": [
        {
          "internalType": "uint256",
          "name": "",
          "type": "uint256"
        }
      ],
      "stateMutability": "view",
      "type": "function",
      "constant": true
    },
    {
      "inputs": [],
      "name": "decimals",
      "outputs": [
        {
          "internalType": "uint8",
          "name": "",
          "type": "uint8"
        }
      ],
      "stateMutability": "view",
      "type": "function",
      "constant": true
    },
    {
      "inputs": [],
      "name": "latestAnswer",
      "outputs": [
        {
          "internalType": "int256",
          "name": "",
          "type": "int256"
        }
      ],
      "stateMutability": "view",
      "type": "function",
      "constant": true
    },
    {
      "inputs": [],
      "name": "latestTimestamp",
      "outputs": [
        {
          "internalType": "uint256",
          "name": "",
          "type": "uint256"
        }
      ],
      "stateMutability": "view",
      "type": "function",
      "constant": true
    },
    {
      "inputs": [],
      "name": "latestRound",
      "outputs": [
        {
          "internalType": "uint256",
          "name": "",
          "type": "uint256"
        }
      ],
      "stateMutability": "view",
      "type": "function",
      "constant": true
    }
  ],
  "bytecode": "0x608060405234801561001057600080fd5b5060405161070d38038061070d83398181016040528101906100329190610115565b83600081905550826001819055508160028190555080600360006101000a81548160ff021916908360ff1602179055505050505061017c565b600080fd5b6000819050919050565b61008381610070565b811461008e57600080fd5b50565b6000815190506100a08161007a565b92915050565b6000819050919050565b6100b9816100a6565b81146100c457600080fd5b50565b6000815190506100d6816100b0565b92915050565b600060ff82169050919050565b6100f2816100dc565b81146100fd57600080fd5b50565b60008151905061010f816100e9565b92915050565b6000806000806080858703121561012f5761012e61006b565b5b600061013d87828801610091565b945050602061014e878288016100c7565b935050604061015f878288016100c7565b925050606061017087828801610100565b91505092959194509250565b6105828061018b6000396000f3fe608060405234801561001057600080fd5b50600436106100885760003560e01c80637284e4161161005b5780637284e416146101055780638205bf6a146101235780639a6fc8f514610141578063feaf968c1461017557610088565b8063313ce5671461008d57806350d25bcd146100ab57806354fd4d50146100c9578063668a0f02146100e7575b600080fd5b610095610197565b6040516100a291906102d5565b60405180910390f35b6100b36101ae565b6040516100c09190610309565b60405180910390f35b6100d16101b7565b6040516100de919061033d565b60405180910390f35b6100ef6101c0565b6040516100fc919061033d565b60405180910390f35b61010d6101ca565b60405161011a91906103e8565b60405180910390f35b61012b610207565b604051610138919061033d565b60405180910390f35b61015b60048036038101906101569190610451565b610211565b60405161016c95949392919061048d565b60405180910390f35b61017d610291565b60405161018e95949392919061048d565b60405180910390f35b6000600360009054906101000a900460ff16905090565b60008054905090565b60006001905090565b6000600254905090565b60606040518060400160405280601b81526020017f4d6f636b2041676772656761746f72563320496e746572666163650000000000815250905090565b6000600154905090565b60008060008060008569ffffffffffffffffffff168669ffffffffffffffffffff1614610273576040517f08c379a000000000000000000000000000000000000000000000000000000000815260040161026a9061052c565b60405180910390fd5b85600054600154600154899450945094509450945091939590929450565b6000806000806000600254600054600154600154600254945094509450945094509091929394565b600060ff82169050919050565b6102cf816102b9565b82525050565b60006020820190506102ea60008301846102c6565b92915050565b6000819050919050565b610303816102f0565b82525050565b600060208201905061031e60008301846102fa565b92915050565b6000819050919050565b61033781610324565b82525050565b6000602082019050610352600083018461032e565b92915050565b600081519050919050565b600082825260208201905092915050565b60005b83811015610392578082015181840152602081019050610377565b60008484015250505050565b6000601f19601f8301169050919050565b60006103ba82610358565b6103c48185610363565b93506103d4818560208601610374565b6103dd8161039e565b840191505092915050565b6000602082019050818103600083015261040281846103af565b905092915050565b600080fd5b600069ffffffffffffffffffff82169050919050565b61042e8161040f565b811461043957600080fd5b50565b60008135905061044b81610425565b92915050565b6000602082840312156104675761046661040a565b5b60006104758482850161043c565b91505092915050565b6104878161040f565b82525050565b600060a0820190506104a2600083018861047e565b6104af60208301876102fa565b6104bc604083018661032e565b6104c9606083018561032e565b6104d6608083018461047e565b9695505050505050565b7f726f756e644964206f7574206f662072616e6765000000000000000000000000600082015250565b6000610516601483610363565b9150610521826104e0565b602082019050919050565b6000602082019050818103600083015261054581610509565b905091905056fea26469706673582212204eff4a9760e5a0bba33732661eca2365d48661f7bc4bb68573a27331994ba0e564736f6c63430008130033",
  "immutableReferences": {},
  "source": "// SPDX-License-Identifier: MIT\r\npragma solidity ^0.8.0;\r\n\r\nimport \"@chainlink/contracts/src/v0.8/interfaces/AggregatorV3Interface.sol\";\r\n\r\ncontract MockAggregatorV3Interface is AggregatorV3Interface {\r\n    int private _answer;\r\n    uint private _timestamp;\r\n    uint private _roundId;\r\n    uint8 private _decimals;\r\n\r\n    constructor(int answer, uint timestamp, uint roundId, uint8 decimals) {\r\n        _answer = answer;\r\n        _timestamp = timestamp;\r\n        _roundId = roundId;\r\n        _decimals = decimals;\r\n    }\r\n\r\n    function latestRoundData() external view returns (uint80, int256, uint256, uint256, uint80) {\r\n        return (uint80(_roundId), _answer, _timestamp, _timestamp, uint80(_roundId));\r\n    }\r\n    function getRoundData(uint80 _roundId) external view returns (uint80, int256, uint256, uint256, uint80) {\r\n        require(_roundId == uint80(_roundId), \"roundId out of range\");\r\n        return (uint80(_roundId), _answer, _timestamp, _timestamp, uint80(_roundId));\r\n    }\r\n    function description() external view override returns (string memory) {\r\n        return \"Mock AggregatorV3 Interface\";\r\n    }\r\n    function version() external view returns (uint256) {\r\n        return 1;\r\n    }\r\n    function decimals() external view returns (uint8) {\r\n        return _decimals;\r\n    }\r\n    function latestAnswer() external view returns (int256) {\r\n        return _answer;\r\n    }\r\n    function latestTimestamp() external view returns (uint256) {\r\n        return _timestamp;\r\n    }\r\n    function latestRound() external view returns (uint256) {\r\n        return _roundId;\r\n    }\r\n}",
  "sourcePath": "D:\\Rider\\web3_examples\\src\\MockingAggregatorV3Interface\\contracts\\MockAggregatorV3Interface.sol",
  "compiler": {
    "name": "solc",
    "version": "0.8.19+commit.7dd6d404.Emscripten.clang"
  },
  "schemaVersion": "3.4.13",
  "updatedAt": "2023-04-23T12:39:43.879Z",
  "networkType": "ethereum",
  "devdoc": {
    "kind": "dev",
    "methods": {},
    "version": 1
  },
  "userdoc": {
    "kind": "user",
    "methods": {},
    "version": 1
  }
}